{
  "_format": "hh-sol-artifact-1",
  "contractName": "Market",
  "sourceName": "contracts/market.sol",
  "abi": [
    {
      "inputs": [],
      "stateMutability": "nonpayable",
      "type": "constructor"
    },
    {
      "anonymous": false,
      "inputs": [
        {
          "indexed": false,
          "internalType": "uint256",
          "name": "jobId",
          "type": "uint256"
        },
        {
          "indexed": true,
          "internalType": "address",
          "name": "freelancer",
          "type": "address"
        }
      ],
      "name": "JobAccepted",
      "type": "event"
    },
    {
      "anonymous": false,
      "inputs": [
        {
          "indexed": false,
          "internalType": "uint256",
          "name": "jobId",
          "type": "uint256"
        }
      ],
      "name": "JobClosed",
      "type": "event"
    },
    {
      "anonymous": false,
      "inputs": [
        {
          "indexed": false,
          "internalType": "uint256",
          "name": "jobId",
          "type": "uint256"
        },
        {
          "indexed": true,
          "internalType": "address",
          "name": "freelancer",
          "type": "address"
        }
      ],
      "name": "JobCompleted",
      "type": "event"
    },
    {
      "anonymous": false,
      "inputs": [
        {
          "indexed": false,
          "internalType": "uint256",
          "name": "jobId",
          "type": "uint256"
        },
        {
          "indexed": true,
          "internalType": "address",
          "name": "client",
          "type": "address"
        },
        {
          "indexed": false,
          "internalType": "string",
          "name": "name",
          "type": "string"
        },
        {
          "indexed": false,
          "internalType": "string",
          "name": "description",
          "type": "string"
        },
        {
          "indexed": false,
          "internalType": "uint256",
          "name": "amount",
          "type": "uint256"
        }
      ],
      "name": "JobCreated",
      "type": "event"
    },
    {
      "anonymous": false,
      "inputs": [
        {
          "indexed": false,
          "internalType": "uint256",
          "name": "jobId",
          "type": "uint256"
        }
      ],
      "name": "JobDisputed",
      "type": "event"
    },
    {
      "inputs": [
        {
          "internalType": "uint256",
          "name": "_jobId",
          "type": "uint256"
        }
      ],
      "name": "acceptJob",
      "outputs": [],
      "stateMutability": "nonpayable",
      "type": "function"
    },
    {
      "inputs": [
        {
          "internalType": "uint256",
          "name": "_jobId",
          "type": "uint256"
        }
      ],
      "name": "closeJob",
      "outputs": [],
      "stateMutability": "nonpayable",
      "type": "function"
    },
    {
      "inputs": [
        {
          "internalType": "uint256",
          "name": "_jobId",
          "type": "uint256"
        }
      ],
      "name": "completeJob",
      "outputs": [],
      "stateMutability": "nonpayable",
      "type": "function"
    },
    {
      "inputs": [
        {
          "internalType": "string",
          "name": "_name",
          "type": "string"
        },
        {
          "internalType": "string",
          "name": "_description",
          "type": "string"
        },
        {
          "internalType": "uint256",
          "name": "_amount",
          "type": "uint256"
        }
      ],
      "name": "createJob",
      "outputs": [],
      "stateMutability": "nonpayable",
      "type": "function"
    },
    {
      "inputs": [
        {
          "internalType": "uint256",
          "name": "_jobId",
          "type": "uint256"
        }
      ],
      "name": "disputeJob",
      "outputs": [],
      "stateMutability": "nonpayable",
      "type": "function"
    },
    {
      "inputs": [],
      "name": "getAllJobs",
      "outputs": [
        {
          "components": [
            {
              "internalType": "uint256",
              "name": "jobId",
              "type": "uint256"
            },
            {
              "internalType": "address",
              "name": "client",
              "type": "address"
            },
            {
              "internalType": "address",
              "name": "freelancer",
              "type": "address"
            },
            {
              "internalType": "string",
              "name": "name",
              "type": "string"
            },
            {
              "internalType": "string",
              "name": "description",
              "type": "string"
            },
            {
              "internalType": "uint256",
              "name": "amount",
              "type": "uint256"
            },
            {
              "internalType": "enum Market.JobStatus",
              "name": "status",
              "type": "uint8"
            }
          ],
          "internalType": "struct Market.Job[]",
          "name": "",
          "type": "tuple[]"
        }
      ],
      "stateMutability": "view",
      "type": "function"
    },
    {
      "inputs": [],
      "name": "jobCounter",
      "outputs": [
        {
          "internalType": "uint256",
          "name": "",
          "type": "uint256"
        }
      ],
      "stateMutability": "view",
      "type": "function"
    },
    {
      "inputs": [
        {
          "internalType": "uint256",
          "name": "",
          "type": "uint256"
        }
      ],
      "name": "jobs",
      "outputs": [
        {
          "internalType": "uint256",
          "name": "jobId",
          "type": "uint256"
        },
        {
          "internalType": "address",
          "name": "client",
          "type": "address"
        },
        {
          "internalType": "address",
          "name": "freelancer",
          "type": "address"
        },
        {
          "internalType": "string",
          "name": "name",
          "type": "string"
        },
        {
          "internalType": "string",
          "name": "description",
          "type": "string"
        },
        {
          "internalType": "uint256",
          "name": "amount",
          "type": "uint256"
        },
        {
          "internalType": "enum Market.JobStatus",
          "name": "status",
          "type": "uint8"
        }
      ],
      "stateMutability": "view",
      "type": "function"
    },
    {
      "inputs": [],
      "name": "owner",
      "outputs": [
        {
          "internalType": "address",
          "name": "",
          "type": "address"
        }
      ],
      "stateMutability": "view",
      "type": "function"
    }
  ],
  "bytecode": "0x608060405234801561001057600080fd5b50336000806101000a81548173ffffffffffffffffffffffffffffffffffffffff021916908373ffffffffffffffffffffffffffffffffffffffff160217905550611e98806100606000396000f3fe608060405234801561001057600080fd5b50600436106100935760003560e01c806373a06f421161006657806373a06f42146101245780638da5cb5b14610140578063965a79fb1461015e578063a1c0d32f1461017c578063d93d9beb1461019857610093565b8063180aedf3146100985780631e01abca146100ce57806350355d76146100ea57806363b2f3c914610108575b600080fd5b6100b260048036038101906100ad91906110fc565b6101b4565b6040516100c59796959493929190611280565b60405180910390f35b6100e860048036038101906100e391906110fc565b610353565b005b6100f261055f565b6040516100ff91906112fd565b60405180910390f35b610122600480360381019061011d91906110fc565b610565565b005b61013e6004803603810190610139919061144d565b6106fd565b005b6101486108fb565b60405161015591906114d8565b60405180910390f35b61016661091f565b60405161017391906116cf565b60405180910390f35b610196600480360381019061019191906110fc565b610c0d565b005b6101b260048036038101906101ad91906110fc565b610e53565b005b60026020528060005260406000206000915090508060000154908060010160009054906101000a900473ffffffffffffffffffffffffffffffffffffffff16908060020160009054906101000a900473ffffffffffffffffffffffffffffffffffffffff169080600301805461022990611720565b80601f016020809104026020016040519081016040528092919081815260200182805461025590611720565b80156102a25780601f10610277576101008083540402835291602001916102a2565b820191906000526020600020905b81548152906001019060200180831161028557829003601f168201915b5050505050908060040180546102b790611720565b80601f01602080910402602001604051908101604052809291908181526020018280546102e390611720565b80156103305780601f1061030557610100808354040283529160200191610330565b820191906000526020600020905b81548152906001019060200180831161031357829003601f168201915b5050505050908060050154908060060160009054906101000a900460ff16905087565b80600154811115610399576040517f08c379a00000000000000000000000000000000000000000000000000000000081526004016103909061179d565b60405180910390fd5b60008054906101000a900473ffffffffffffffffffffffffffffffffffffffff1673ffffffffffffffffffffffffffffffffffffffff163373ffffffffffffffffffffffffffffffffffffffff1614610427576040517f08c379a000000000000000000000000000000000000000000000000000000000815260040161041e9061182f565b60405180910390fd5b60006002600084815260200190815260200160002090506002600481111561045257610451611209565b5b8160060160009054906101000a900460ff16600481111561047657610475611209565b5b14806104b757506003600481111561049157610490611209565b5b8160060160009054906101000a900460ff1660048111156104b5576104b4611209565b5b145b6104f6576040517f08c379a00000000000000000000000000000000000000000000000000000000081526004016104ed9061189b565b60405180910390fd5b60048160060160006101000a81548160ff0219169083600481111561051e5761051d611209565b5b02179055507f6edf0875f8a9ed26275e4e52f2355d96ea7fd96625d6992a9733be603136fa6e8360405161055291906112fd565b60405180910390a1505050565b60015481565b806001548111156105ab576040517f08c379a00000000000000000000000000000000000000000000000000000000081526004016105a29061179d565b60405180910390fd5b6000600260008481526020019081526020016000209050600060048111156105d6576105d5611209565b5b8160060160009054906101000a900460ff1660048111156105fa576105f9611209565b5b1461063a576040517f08c379a000000000000000000000000000000000000000000000000000000000815260040161063190611907565b60405180910390fd5b338160020160006101000a81548173ffffffffffffffffffffffffffffffffffffffff021916908373ffffffffffffffffffffffffffffffffffffffff16021790555060018160060160006101000a81548160ff021916908360048111156106a5576106a4611209565b5b02179055503373ffffffffffffffffffffffffffffffffffffffff167f4426e4a90a9570c8f678a263b11785eaaade8b79d76d18c43d4d8e00062e4f83846040516106f091906112fd565b60405180910390a2505050565b6001600081548092919061071090611956565b91905055506040518060e0016040528060015481526020013373ffffffffffffffffffffffffffffffffffffffff168152602001600073ffffffffffffffffffffffffffffffffffffffff1681526020018481526020018381526020018281526020016000600481111561078757610786611209565b5b8152506002600060015481526020019081526020016000206000820151816000015560208201518160010160006101000a81548173ffffffffffffffffffffffffffffffffffffffff021916908373ffffffffffffffffffffffffffffffffffffffff16021790555060408201518160020160006101000a81548173ffffffffffffffffffffffffffffffffffffffff021916908373ffffffffffffffffffffffffffffffffffffffff160217905550606082015181600301908161084c9190611b4a565b5060808201518160040190816108629190611b4a565b5060a0820151816005015560c08201518160060160006101000a81548160ff0219169083600481111561089857610897611209565b5b02179055509050503373ffffffffffffffffffffffffffffffffffffffff167fcf7a918a6ba6b1b2531fbf26b1841389c6d50a3ec7334a394ed15cec25ec245e6001548585856040516108ee9493929190611c1c565b60405180910390a2505050565b60008054906101000a900473ffffffffffffffffffffffffffffffffffffffff1681565b6060600060015467ffffffffffffffff81111561093f5761093e611322565b5b60405190808252806020026020018201604052801561097857816020015b610965611037565b81526020019060019003908161095d5790505b5090506000600190505b6001548111610c0557600260008281526020019081526020016000206040518060e0016040529081600082015481526020016001820160009054906101000a900473ffffffffffffffffffffffffffffffffffffffff1673ffffffffffffffffffffffffffffffffffffffff1673ffffffffffffffffffffffffffffffffffffffff1681526020016002820160009054906101000a900473ffffffffffffffffffffffffffffffffffffffff1673ffffffffffffffffffffffffffffffffffffffff1673ffffffffffffffffffffffffffffffffffffffff168152602001600382018054610a6f90611720565b80601f0160208091040260200160405190810160405280929190818152602001828054610a9b90611720565b8015610ae85780601f10610abd57610100808354040283529160200191610ae8565b820191906000526020600020905b815481529060010190602001808311610acb57829003601f168201915b50505050508152602001600482018054610b0190611720565b80601f0160208091040260200160405190810160405280929190818152602001828054610b2d90611720565b8015610b7a5780601f10610b4f57610100808354040283529160200191610b7a565b820191906000526020600020905b815481529060010190602001808311610b5d57829003601f168201915b50505050508152602001600582015481526020016006820160009054906101000a900460ff166004811115610bb257610bb1611209565b5b6004811115610bc457610bc3611209565b5b8152505082600183610bd69190611c6f565b81518110610be757610be6611ca3565b5b60200260200101819052508080610bfd90611956565b915050610982565b508091505090565b80600154811115610c53576040517f08c379a0000000000000000000000000000000000000000000000000000000008152600401610c4a9061179d565b60405180910390fd5b816002600082815260200190815260200160002060020160009054906101000a900473ffffffffffffffffffffffffffffffffffffffff1673ffffffffffffffffffffffffffffffffffffffff163373ffffffffffffffffffffffffffffffffffffffff1614610cf8576040517f08c379a0000000000000000000000000000000000000000000000000000000008152600401610cef90611d44565b60405180910390fd5b600060026000858152602001908152602001600020905060016004811115610d2357610d22611209565b5b8160060160009054906101000a900460ff166004811115610d4757610d46611209565b5b14610d87576040517f08c379a0000000000000000000000000000000000000000000000000000000008152600401610d7e90611db0565b60405180910390fd5b60028160060160006101000a81548160ff02191690836004811115610daf57610dae611209565b5b02179055503373ffffffffffffffffffffffffffffffffffffffff166108fc82600501549081150290604051600060405180830381858888f19350505050158015610dfe573d6000803e3d6000fd5b503373ffffffffffffffffffffffffffffffffffffffff167f16a7286196330eaff0c7db2ec34ead9c6d2d023b356b62ee7ea644c842a84b6785604051610e4591906112fd565b60405180910390a250505050565b80600154811115610e99576040517f08c379a0000000000000000000000000000000000000000000000000000000008152600401610e909061179d565b60405180910390fd5b816002600082815260200190815260200160002060010160009054906101000a900473ffffffffffffffffffffffffffffffffffffffff1673ffffffffffffffffffffffffffffffffffffffff163373ffffffffffffffffffffffffffffffffffffffff1614610f3e576040517f08c379a0000000000000000000000000000000000000000000000000000000008152600401610f3590611e42565b60405180910390fd5b600060026000858152602001908152602001600020905060016004811115610f6957610f68611209565b5b8160060160009054906101000a900460ff166004811115610f8d57610f8c611209565b5b14610fcd576040517f08c379a0000000000000000000000000000000000000000000000000000000008152600401610fc490611db0565b60405180910390fd5b60038160060160006101000a81548160ff02191690836004811115610ff557610ff4611209565b5b02179055507fb1dee78cef8c6887046d91c59e17f84fbc012c9f7efa49a10cce97e13cc94bf48460405161102991906112fd565b60405180910390a150505050565b6040518060e0016040528060008152602001600073ffffffffffffffffffffffffffffffffffffffff168152602001600073ffffffffffffffffffffffffffffffffffffffff168152602001606081526020016060815260200160008152602001600060048111156110ac576110ab611209565b5b81525090565b6000604051905090565b600080fd5b600080fd5b6000819050919050565b6110d9816110c6565b81146110e457600080fd5b50565b6000813590506110f6816110d0565b92915050565b600060208284031215611112576111116110bc565b5b6000611120848285016110e7565b91505092915050565b611132816110c6565b82525050565b600073ffffffffffffffffffffffffffffffffffffffff82169050919050565b600061116382611138565b9050919050565b61117381611158565b82525050565b600081519050919050565b600082825260208201905092915050565b60005b838110156111b3578082015181840152602081019050611198565b60008484015250505050565b6000601f19601f8301169050919050565b60006111db82611179565b6111e58185611184565b93506111f5818560208601611195565b6111fe816111bf565b840191505092915050565b7f4e487b7100000000000000000000000000000000000000000000000000000000600052602160045260246000fd5b6005811061124957611248611209565b5b50565b600081905061125a82611238565b919050565b600061126a8261124c565b9050919050565b61127a8161125f565b82525050565b600060e082019050611295600083018a611129565b6112a2602083018961116a565b6112af604083018861116a565b81810360608301526112c181876111d0565b905081810360808301526112d581866111d0565b90506112e460a0830185611129565b6112f160c0830184611271565b98975050505050505050565b60006020820190506113126000830184611129565b92915050565b600080fd5b600080fd5b7f4e487b7100000000000000000000000000000000000000000000000000000000600052604160045260246000fd5b61135a826111bf565b810181811067ffffffffffffffff8211171561137957611378611322565b5b80604052505050565b600061138c6110b2565b90506113988282611351565b919050565b600067ffffffffffffffff8211156113b8576113b7611322565b5b6113c1826111bf565b9050602081019050919050565b82818337600083830152505050565b60006113f06113eb8461139d565b611382565b90508281526020810184848401111561140c5761140b61131d565b5b6114178482856113ce565b509392505050565b600082601f83011261143457611433611318565b5b81356114448482602086016113dd565b91505092915050565b600080600060608486031215611466576114656110bc565b5b600084013567ffffffffffffffff811115611484576114836110c1565b5b6114908682870161141f565b935050602084013567ffffffffffffffff8111156114b1576114b06110c1565b5b6114bd8682870161141f565b92505060406114ce868287016110e7565b9150509250925092565b60006020820190506114ed600083018461116a565b92915050565b600081519050919050565b600082825260208201905092915050565b6000819050602082019050919050565b611528816110c6565b82525050565b61153781611158565b82525050565b600082825260208201905092915050565b600061155982611179565b611563818561153d565b9350611573818560208601611195565b61157c816111bf565b840191505092915050565b6115908161125f565b82525050565b600060e0830160008301516115ae600086018261151f565b5060208301516115c1602086018261152e565b5060408301516115d4604086018261152e565b50606083015184820360608601526115ec828261154e565b91505060808301518482036080860152611606828261154e565b91505060a083015161161b60a086018261151f565b5060c083015161162e60c0860182611587565b508091505092915050565b60006116458383611596565b905092915050565b6000602082019050919050565b6000611665826114f3565b61166f81856114fe565b9350836020820285016116818561150f565b8060005b858110156116bd578484038952815161169e8582611639565b94506116a98361164d565b925060208a01995050600181019050611685565b50829750879550505050505092915050565b600060208201905081810360008301526116e9818461165a565b905092915050565b7f4e487b7100000000000000000000000000000000000000000000000000000000600052602260045260246000fd5b6000600282049050600182168061173857607f821691505b60208210810361174b5761174a6116f1565b5b50919050565b7f4a6f6220646f6573206e6f742065786973740000000000000000000000000000600082015250565b6000611787601283611184565b915061179282611751565b602082019050919050565b600060208201905081810360008301526117b68161177a565b9050919050565b7f4f6e6c7920746865206f776e65722063616e2063616c6c20746869732066756e60008201527f6374696f6e000000000000000000000000000000000000000000000000000000602082015250565b6000611819602583611184565b9150611824826117bd565b604082019050919050565b600060208201905081810360008301526118488161180c565b9050919050565b7f4a6f62206973206e6f7420636f6d706c65746564206f72206469737075746564600082015250565b6000611885602083611184565b91506118908261184f565b602082019050919050565b600060208201905081810360008301526118b481611878565b9050919050565b7f4a6f62206973206e6f74206f70656e20666f7220616363657074616e63650000600082015250565b60006118f1601e83611184565b91506118fc826118bb565b602082019050919050565b60006020820190508181036000830152611920816118e4565b9050919050565b7f4e487b7100000000000000000000000000000000000000000000000000000000600052601160045260246000fd5b6000611961826110c6565b91507fffffffffffffffffffffffffffffffffffffffffffffffffffffffffffffffff820361199357611992611927565b5b600182019050919050565b60008190508160005260206000209050919050565b60006020601f8301049050919050565b600082821b905092915050565b600060088302611a007fffffffffffffffffffffffffffffffffffffffffffffffffffffffffffffffff826119c3565b611a0a86836119c3565b95508019841693508086168417925050509392505050565b6000819050919050565b6000611a47611a42611a3d846110c6565b611a22565b6110c6565b9050919050565b6000819050919050565b611a6183611a2c565b611a75611a6d82611a4e565b8484546119d0565b825550505050565b600090565b611a8a611a7d565b611a95818484611a58565b505050565b5b81811015611ab957611aae600082611a82565b600181019050611a9b565b5050565b601f821115611afe57611acf8161199e565b611ad8846119b3565b81016020851015611ae7578190505b611afb611af3856119b3565b830182611a9a565b50505b505050565b600082821c905092915050565b6000611b2160001984600802611b03565b1980831691505092915050565b6000611b3a8383611b10565b9150826002028217905092915050565b611b5382611179565b67ffffffffffffffff811115611b6c57611b6b611322565b5b611b768254611720565b611b81828285611abd565b600060209050601f831160018114611bb45760008415611ba2578287015190505b611bac8582611b2e565b865550611c14565b601f198416611bc28661199e565b60005b82811015611bea57848901518255600182019150602085019450602081019050611bc5565b86831015611c075784890151611c03601f891682611b10565b8355505b6001600288020188555050505b505050505050565b6000608082019050611c316000830187611129565b8181036020830152611c4381866111d0565b90508181036040830152611c5781856111d0565b9050611c666060830184611129565b95945050505050565b6000611c7a826110c6565b9150611c85836110c6565b9250828203905081811115611c9d57611c9c611927565b5b92915050565b7f4e487b7100000000000000000000000000000000000000000000000000000000600052603260045260246000fd5b7f4f6e6c792074686520667265656c616e6365722063616e2063616c6c2074686960008201527f732066756e6374696f6e00000000000000000000000000000000000000000000602082015250565b6000611d2e602a83611184565b9150611d3982611cd2565b604082019050919050565b60006020820190508181036000830152611d5d81611d21565b9050919050565b7f4a6f62206973206e6f7420696e2070726f677265737300000000000000000000600082015250565b6000611d9a601683611184565b9150611da582611d64565b602082019050919050565b60006020820190508181036000830152611dc981611d8d565b9050919050565b7f4f6e6c792074686520636c69656e742063616e2063616c6c207468697320667560008201527f6e6374696f6e0000000000000000000000000000000000000000000000000000602082015250565b6000611e2c602683611184565b9150611e3782611dd0565b604082019050919050565b60006020820190508181036000830152611e5b81611e1f565b905091905056fea26469706673582212205a3cafa34d015959d9b08461b657bb2946386f423230e06fe3fb03457dc3298964736f6c63430008130033",
  "linkReferences": {},
  "deployedLinkReferences": {}
}